:100000000C943E000C945B000C945B000C945B0021
:100010000C945B000C945B000C945B000C945B00F4
:100020000C945B000C945B000C945B000C945B00E4
:100030000C945B000C9481010C945B000C945B00AD
:100040000C945B000C945B000C945B000C945B00C4
:100050000C945B000C945B000C945B000C945B00B4
:100060000C945B000C945B000C945B000C945B00A4
:100070000C945B000C945B000C945B0011241FBE7D
:10008000CFEFD0E1DEBFCDBF11E0A0E0B1E0E8E608
:10009000F3E002C005900D92A031B107D9F721E03D
:1000A000A0E1B1E001C01D92A831B207E1F70E94C2
:1000B00076010C94B2010C9400008EEF82B9E091AD
:1000C0001001EF70E0931301F0E0E050FF4F8081EA
:1000D00080931601809585B98FED9EE20197F1F727
:1000E00000C000008DEF82B9809110019091110144
:1000F000807F9927929582958F7089279F70892795
:1001000080931301FC01E050FF4F80818093160122
:10011000809585B98FED9EE20197F1F700C0000050
:100120008BEF82B9809110019091110188279F7007
:10013000892F992780931301FC01E050FF4F8081A4
:1001400080931601809585B98FED9EE20197F1F7B6
:1001500000C0000087EF82B920911101822F8295A3
:100160008F7090E080931301FC01E050FF4F80817D
:1001700080931601809585B98FED9EE20197F1F786
:1001800000C0000008958DE08093810080E480939A
:10019000800010928500109284008DE38093890086
:1001A00089E08093880082E080936F000895CF9368
:1001B0008FE78BB910921101109210011092140167
:1001C000109215011092170110921201309B88C0F5
:1001D000C1E09091150186B1829581708C1789F0EC
:1001E0008C2F911180E0882361F0C09315018091DC
:1001F000100190911101905F909311018093100173
:1002000009C0349B07C08C2F913009F080E0811128
:10021000109215019091140186B185FB882780F911
:100220008C1789F08C2F911180E0882361F0C093A6
:1002300014018091100190911101939590931101F7
:100240008093100109C0359B07C08C2F913009F0B5
:1002500080E08111109214019091120186B186FB09
:10026000882780F98C1789F08C2F911180E08823E2
:1002700061F0C0931201809110019091110140969C
:10028000909311018093100109C0369B07C08C2FF9
:10029000913009F080E081111092120180911701D4
:1002A000379911C09C2F811190E0992361F0C09380
:1002B0001701809110019091110101969093110105
:1002C0008093100109C0379B07C09C2F813009F033
:1002D00090E09111109217010E945D00309979CF42
:1002E0008FEF8BB90E94C300CF9108958FEF81B932
:1002F00084B988B98AB90E94D70078940E945D00B9
:10030000FDCF1F920F920FB60F9211242F933F93A0
:100310004F935F936F937F938F939F93AF93BF930D
:10032000EF93FF93809110019091110101979093A9
:10033000110180931001892B21F4109281000E94F9
:10034000D700FF91EF91BF91AF919F918F917F91D6
:100350006F915F914F913F912F910F900FBE0F9032
:080360001F901895F894FFCFDF
:100368007E306D79335B5F707F7B771F4E3D4F47E3
:04000003000001AE4A
:00000001FF
