:100000000C943E000C945B000C945B000C945B0021
:100010000C945B000C945B000C945B000C945B00F4
:100020000C945B000C945B000C945B000C945B00E4
:100030000C945B000C9447030C945B000C945B00E5
:100040000C945B000C945B000C945B000C945B00C4
:100050000C945B000C945B000C945B000C945B00B4
:100060000C945B000C945B000C945B000C945B00A4
:100070000C945B000C945B000C945B0011241FBE7D
:10008000CFEFD0E1DEBFCDBF11E0A0E0B1E0ECEBFF
:10009000F1E102C005900D92A236B107D9F721E037
:1000A000A2E6B1E001C01D92A63EB207E1F70E94B0
:1000B000DB050C94DC080C9400001098662311F00A
:1000C000119A01C0119822B130E1839FC00111241F
:1000D0002F70282B22B9129A82E08A95F1F700C07E
:1000E00012980895109A91B19F7091B9882311F0D8
:1000F000119A01C01198129A82E08A95F1F700C016
:1001000080B1129891B1906F91B9109882958F70CB
:100110000895CF93DF93C82FD62F82958F700E94BA
:100120005D006D2F8C2F8F70DF91CF910C945D004F
:10013000CF93DF93C82F0E947200D82FD295D07F23
:100140008C2F0E9472008D2BDF91CF91089580E05B
:100150000E94980087FDFBCF0895099A089A0A9A91
:1001600081B1806F81B98FE59AEE0197F1F700C0F8
:10017000000060E083E00E945D008FE090E4019762
:10018000F1F700C0000060E083E00E945D008FE8AE
:1001900091E00197F1F700C0000060E083E00E9469
:1001A0005D0095EC9A95F1F7000060E082E00E9416
:1001B0005D0080E00E94A70060E088E20E94890064
:1001C00080E00E94A70060E088E00E94890080E053
:1001D0000C94A7000E94AD0060E081E00E948900BD
:1001E00081E00E94A70060E086E00E94890081E033
:1001F0000E94A70060E08CE00E94890081E00C94DE
:10020000A700CF93C82F80916301882399F0CA304B
:1002100099F080916201811120C081E00E94A700C5
:1002200060E081E00E94890081E00E94A7001092B6
:10023000630113C0CA3089F480916201811106C044
:1002400081E08093620160E080EC09C081E08093EE
:10025000630110926201CF91089561E08C2F0E949A
:10026000890081E0CF910C94A700CF92DF92EF92AA
:100270006B01E82EF6018491E7FC8081882339F038
:100280000E9401018FEFC81AD80AE80AF3CFEF9055
:10029000DF90CF90089590E4699F800D112460E075
:1002A00080680E94890081E00C94A7008BE0809315
:1002B0008100109285001092840089E0809389006B
:1002C00084EC8093880082E080936F000895809191
:1002D000DC01982F9270319913C0911111C0826086
:1002E0008093DC018091B40192E089278093B4016E
:1002F00081FF02C082E301C080E28093870107C0D2
:10030000319B05C0992319F08D7F8093DC0180918A
:10031000DC01982F9470329913C0911111C0846040
:100320008093DC018091B40194E089278093B4012B
:1003300082FF02C083E301C080E28093880107C08E
:10034000329B05C0992319F08B7F8093DC0180914B
:10035000DC01982F9870339913C0911111C08860F7
:100360008093DC018091B40198E089278093B401E7
:1003700083FF02C084E301C080E28093890107C04B
:10038000339B05C0992319F0877F8093DC0180910E
:10039000DC01982F9071349913C0911111C08061C4
:1003A0008093DC018091B40190E189278093B401AE
:1003B00084FF02C085E301C080E280938A0107C008
:1003C000349B05C0992319F08F7E8093DC018091C6
:1003D000DC01982F9072359914C0911112C080627F
:1003E0008093DC018091B40190E289278093B4016D
:1003F00085FF04C086E380938B010AC090938B0134
:1004000007C0359B05C0992319F08F7D8093DC01CF
:100410008091DC01982F9074369913C0911111C00E
:1004200080648093DC018091B40190E489278093FB
:10043000B40186FF02C087E301C080E280938C0193
:1004400007C0369B05C0992319F08F7B8093DC0190
:100450008091DC01379912C087FD10C080688093BD
:10046000DC018091B40180588093B40187FF02C001
:1004700088E301C080E280938D010895379B05C019
:1004800087FF03C08F778093DC0108956F927F927E
:100490008F92CF92DF92EF920E94EA006EE071E0BD
:1004A0008DE691E00E9404066FE171E08EE791E035
:1004B0000E94040660E080E00E944B018DE691E01E
:1004C0006C0120E8E22E8E2DB6010E94350161E01C
:1004D00080E00E944B018EE791E03C0120E8822EF3
:1004E000882DB3010E9435011092B4011092DC01F5
:1004F000309B13C00E94670160E080E00E944B01C6
:100500008E2DB6010E94350161E080E00E944B0112
:10051000882DB3010E943501EBCF8091B401809307
:10052000B3011092D8011092D9011092DA01109201
:10053000DB017894EF90DF90CF908F907F906F9059
:100540000C9456018091B30126B191E0269521705B
:10055000291719F081FD9093DC01329905C082FFC3
:1005600003C092E09093DC01339905C083FF03C080
:1005700093E09093DC01349905C084FF03C094E0BC
:100580009093DC01359905C085FF03C095E09093F9
:10059000DC01369905C086FF03C096E09093DC012C
:1005A000379905C087FF03C087E08093DC01089579
:1005B000CF93DF931F92CDB7DEB76AE571E085EB8D
:1005C00091E00E94040619829091BE0189818917E9
:1005D00078F4E981A981F0E0EB54FE4FB0E0AF522E
:1005E000BE4F8C91805D808389818F5F8983EECF40
:1005F00085EB91E09F938F9380E391E09F938F939E
:100600000DE611E01F930F930E940B0660E080E05F
:100610000E944B01B80180E80E9435018091D10110
:1006200081508093DC010F900F900F900F900F90EE
:100630000F903CE3A32E31E0B32E0EE711E06801EA
:1006400080E8E82E0E94A2028091DC0190E0FC018B
:10065000EE0FFF1FE250FF4F21812F9320812F9338
:10066000C1969F938F93BF92AF921F930F930E9457
:100670000B0661E080E00E944B018E2DB6010E94C6
:1006800035010FB6F894DEBF0FBECDBFDBCF1F9292
:100690000F920FB60F9211242F933F934F935F93B6
:1006A0006F937F938F939F93AF93BF93EF93FF933A
:1006B0008091D8019091D901A091DA01B091DB012C
:1006C0000196A11DB11D8093D8019093D901A093EB
:1006D000DA01B093DB018091B401811103C015BC34
:1006E0000E94D802FF91EF91BF91AF919F918F919E
:1006F0007F916F915F914F913F912F910F900FBE1E
:100700000F901F90189540E0242F30E0FB01E20F7E
:10071000F31F5081552339F05081FC01E20FF31F84
:1007200050834F5FF1CF08954F925F926F927F9207
:100730008F929F92AF92BF92CF92DF92EF92FF92F1
:10074000CF93DF93CDB7DEB762970FB6F894DEBFD5
:100750000FBECDBF6B877C878D879E878AE38E8394
:100760008B8319866B857C858D859E854AE0C42E9A
:10077000D12CE12CF12CA70196010E94E2056A8799
:100780008A85805D88876B857C858D859E852B8598
:100790003C854D855E852F87388B498B5A8B54E677
:1007A000852E912CA12CB12CA50194010E94E2056B
:1007B0002B013C016F85788989899A89A701960167
:1007C0000E94E205461A570A680A790AC301B20173
:1007D000A70196010E94E2052A878A85805D8F83A2
:1007E0006B857C858D859E852B853C854D855E85BD
:1007F0002F87388B498B5A8BE8EECE2EE3E0DE2E26
:10080000E12CF12CA70196010E94E2052B013C018D
:100810006F85788989899A89A50194010E94E205EA
:10082000461A570A680A790AC301B201A501940160
:100830000E94E2052A878A85805D8D836B857C8591
:100840008D859E852B853C854D855E852F87388BD4
:10085000498B5A8BF0E78F2EF7E19F2EA12CB12CFC
:10086000A50194010E94E2052B013C016F85788966
:1008700089899A89A70196010E94E205461A570ABA
:10088000680A790AC301B201A70196010E94E20534
:100890002A878A85805D8C836B857C858D859E8586
:1008A0002B853C854D855E852F87388B498B5A8BF0
:1008B000A0E6CA2EAAEEDA2EE12CF12CA7019601B1
:1008C0000E94E2052B013C016F85788989899A890C
:1008D000A50194010E94E205461A570A680A790A9E
:1008E000C301B201A50194010E94E2052A878A850D
:1008F000805D8A836B857C858D859E854B845C8439
:100900006D847E8420EC37E249E050E00E94E205ED
:100910004B015C01C301B201A70196010E94E205EF
:10092000861A970AA80AB90AC501B401A701960157
:100930000E94E2052A878A85805D8983BE016F5FF8
:100940007F4F84E691E00E94830362960FB6F8948D
:10095000DEBF0FBECDBFDF91CF91FF90EF90DF9054
:10096000CF90BF90AF909F908F907F906F905F904F
:100970004F9008958091B401319919C081FF17C03B
:100980008D7F8093B40180E28093870164E671E0FB
:1009900081EA91E00E9483038091BE01E82FF0E09C
:1009A000EF52FE4F92E090838F5F8093BE01809163
:1009B000B401329919C082FF17C08B7F8093B401B4
:1009C00080E28093880164E671E088E991E00E940A
:1009D00083038091BE01E82FF0E0EF52FE4F93E0D9
:1009E00090838F5F8093BE018091B401339919C0C9
:1009F00083FF17C0877F8093B40180E280938901D1
:100A000064E671E08DED91E00E9483038091BE0168
:100A1000E82FF0E0EF52FE4F94E090838F5F8093D9
:100A2000BE018091B401349919C084FF17C08F7E34
:100A30008093B40180E280938A0164E671E08FEBD9
:100A400091E00E9483038091BE01E82FF0E0EF5215
:100A5000FE4F95E090838F5F8093BE018091B4013B
:100A6000359919C085FF17C08F7D8093B40180E24E
:100A700080938B0164E671E088EC91E00E9483032F
:100A80008091BE01E82FF0E0EF52FE4F96E0908398
:100A90008F5F8093BE018091B401369919C086FFA3
:100AA00017C08F7B8093B40180E280938C0164E651
:100AB00071E08AEA91E00E9483038091BE01E82FF1
:100AC000F0E0EF52FE4F97E090838F5F8093BE017E
:100AD0008091B401379919C087FF17C08F77809331
:100AE000B40180E280938D0164E671E08FE891E0CB
:100AF0000E9483038091BE01E82FF0E0EF52FE4F89
:100B000098E090838F5F8093BE0108956F927F92EB
:100B10008F92CF92DF92EF9268E471E084E691E0E9
:100B20000E9404061092BE0169E571E085EB91E038
:100B30000E94040661E571E08DE691E00E940406E2
:100B400060E080E00E944B016DE671E080E80E9469
:100B5000350184E691E06C0120E8E22E8EE791E019
:100B60003C0120E8822E8091B4018823E9F0609155
:100B7000D8017091D9018091DA019091DB010E9436
:100B800094030E94BA0460E088E00E944B018E2D1D
:100B9000B6010E94350161E080E00E944B01882D82
:100BA000B3010E943501DFCFEF90DF90CF908F909F
:100BB0007F906F9008958FEF88B90E9446020E943F
:100BC0008605FFCFA1E21A2EAA1BBB1BFD010DC09B
:100BD000AA1FBB1FEE1FFF1FA217B307E407F507ED
:100BE00020F0A21BB30BE40BF50B661F771F881FC9
:100BF000991F1A9469F760957095809590959B015F
:100C0000AC01BD01CF010895FB01DC0101900D9203
:100C10000020E1F70895AEE0B0E0E1E1F6E00C94E9
:100C2000B3080D891E8986E08C831A8309838FEFB0
:100C30009FE79E838D83AE01475E5F4F6F89788DFE
:100C4000CE0101960E942D06EF81F885E00FF11F7D
:100C500010822E96E4E00C94CF08ACE0B0E0E3E321
:100C6000F6E00C94A5087C016B018A01FC01178257
:100C70001682838181FFBDC1CE0101964C01F7012F
:100C80009381F60193FD859193FF81916F018823F4
:100C900009F4ABC1853239F493FD859193FF8191BD
:100CA0006F01853229F4B70190E00E941508E7CF63
:100CB000512C312C20E02032A0F48B3269F030F43A
:100CC000803259F0833269F420612CC08D3239F0C2
:100CD000803339F4216026C02260246023C028605C
:100CE00021C027FD27C030ED380F3A3078F426FFB9
:100CF00006C0FAE05F9E300D1124532E13C08AE027
:100D0000389E300D1124332E20620CC08E3221F417
:100D100026FD6BC1206406C08C3611F4206802C029
:100D2000883641F4F60193FD859193FF81916F011F
:100D30008111C1CF982F9F7D9554933028F40C5F7B
:100D40001F4FFFE3F9830DC0833631F0833771F015
:100D5000833509F05BC022C0F801808189830E5F72
:100D60001F4F44244394512C540115C03801F2E024
:100D70006F0E711CF801A080B18026FF03C0652DA5
:100D800070E002C06FEF7FEFC5012C870E940A0858
:100D90002C0183012C852F77222E17C03801F2E019
:100DA0006F0E711CF801A080B18026FF03C0652D75
:100DB00070E002C06FEF7FEFC5012C870E94FF0734
:100DC0002C012C852068222E830123FC1BC0832D3F
:100DD00090E048165906B0F4B70180E290E00E9416
:100DE00015083A94F4CFF50127FC859127FE8191EF
:100DF0005F01B70190E00E94150831103A94F1E0CC
:100E00004F1A51084114510471F7E5C0843611F0AE
:100E1000893639F5F80127FF07C060817181828129
:100E200093810C5F1F4F08C060817181882777FD17
:100E30008095982F0E5F1F4F2F76B22E97FF09C017
:100E400090958095709561957F4F8F4F9F4F20684B
:100E5000B22E2AE030E0A4010E944708A82EA8186C
:100E600044C0853729F42F7EB22E2AE030E025C019
:100E7000F22FF97FBF2E8F36C1F018F4883579F044
:100E8000B4C0803719F0883721F0AFC02F2F206110
:100E9000B22EB4FE0DC08B2D8460B82E09C024FF85
:100EA0000AC09F2F9660B92E06C028E030E005C02A
:100EB00020E130E002C020E132E0F801B7FE07C0D7
:100EC00060817181828193810C5F1F4F06C06081B8
:100ED000718180E090E00E5F1F4FA4010E944708DF
:100EE000A82EA818FB2DFF77BF2EB6FE0BC02B2D0A
:100EF0002E7FA51450F4B4FE0AC0B2FC08C02B2DFE
:100F00002E7E05C07A2C2B2D03C07A2C01C0752CA7
:100F100024FF0DC0FE01EA0DF11D8081803311F424
:100F2000297E09C022FF06C07394739404C0822FE7
:100F3000867809F0739423FD13C020FF06C05A2C55
:100F4000731418F4530C5718732C731468F4B70106
:100F500080E290E02C870E94150873942C85F5CFD1
:100F6000731410F4371801C0312C24FF12C0B701DC
:100F700080E390E02C870E9415082C8522FF17C083
:100F800021FF03C088E590E002C088E790E0B70148
:100F90000CC0822F867859F021FD02C080E201C08A
:100FA0008BE227FD8DE2B70190E00E941508A514A1
:100FB00038F4B70180E390E00E9415085A94F7CF07
:100FC000AA94F401EA0DF11D8081B70190E00E941E
:100FD0001508A110F5CF332009F451CEB70180E2F6
:100FE00090E00E9415083A94F6CFF7018681978128
:100FF00002C08FEF9FEF2C96E2E10C94C108FC0138
:101000000590615070400110D8F7809590958E0F33
:101010009F1F0895FC016150704001900110D8F7A6
:10102000809590958E0F9F1F08950F931F93CF93D8
:10103000DF93182F092FEB018B8181FD03C08FEF08
:101040009FEF20C082FF10C04E815F812C813D81C7
:10105000421753077CF4E881F9819F012F5F3F4FCE
:1010600039832883108306C0E885F985812F099587
:10107000892B29F72E813F812F5F3F4F3F832E839E
:10108000812F902FDF91CF911F910F910895FA0139
:10109000AA27283051F1203181F1E8946F936E7FB7
:1010A0006E5F7F4F8F4F9F4FAF4FB1E03ED0B4E0A8
:1010B0003CD0670F781F891F9A1FA11D680F791FE9
:1010C0008A1F911DA11D6A0F711D811D911DA11DFA
:1010D00020D009F468943F912AE0269F112430190A
:1010E000305D3193DEF6CF010895462F4770405DA5
:1010F0004193B3E00FD0C9F7F6CF462F4F70405D54
:101100004A3318F0495D31FD4052419302D0A9F7AE
:10111000EACFB4E0A6959795879577956795BA95A8
:10112000C9F700976105710508959B01AC010A2E6E
:1011300006945795479537952795BA95C9F7620F45
:10114000731F841F951FA01D08952F923F924F92E9
:101150005F926F927F928F929F92AF92BF92CF9247
:10116000DF92EF92FF920F931F93CF93DF93CDB750
:10117000DEB7CA1BDB0B0FB6F894DEBF0FBECDBFC8
:1011800009942A88398848885F846E847D848C8499
:101190009B84AA84B984C884DF80EE80FD800C81A2
:1011A0001B81AA81B981CE0FD11D0FB6F894DEBF85
:0C11B0000FBECDBFED010895F894FFCFF5
:1011BC00A1019801DD01BF01C801AA018F012A2AF2
:1011CC002A53544F5057415443482A2A2A2000503E
:1011DC006C61796572733A20202020202020200039
:1011EC004F726465723A2020202573005325633AB0
:1011FC00202020202025730030303A30303A303017
:10120C000054696D653A20202020202020202020C9
:02121C002000B0
:00000001FF
