:020000020000FC
:02000000FFC03F
:100064007E306D79335B5F707F7B771F4E3D4F47EA
:100200000FEF04B901B980E070E034E6E4E6F0E015
:1002100020E0A1E000E10EBF0FEF0DBF8894D8945D
:100220007A0F821F63E00E9420016A95E1F7F6CF02
:100230004A95F1F740E55A95D9F740E558EC08950D
:1002400007E002B9972F9F70930FE92F0491009553
:1002500005B90E9418010BE002B9972F907F929583
:10026000930FE92F0491009505B90E9418010DE044
:1002700002B9982F9F70930FE92F0491009505B94B
:100280000E9418010EE002B9982F907F9295930F6B
:0E029000E92F0491009505B90E941801089508
:00000001FF
